:020000040800F2
:10000000280C002065010008252800080B230008A3
:1000100000000000000000000000000000000000E0
:10002000000000000000000000000000C1280008DF
:100030000000000000000000272800081529000823
:100040007701000800000000770100087701000830
:100050007701000877010008770100087D05000896
:100060000000000077010008770100087701000810
:100070007701000877010008770100080000000000
:10008000770100080000000000000000C1290008FE
:1000900000000000D1290008ED29000877010008C0
:1000A000770100087701000877010008E9350008AA
:1000B00077010008000000000000000000000000C0
:1000C00000F002F800F03EF80CA030C80838241800
:1000D0002D18A246671EAB4654465D46AC4201D180
:1000E00000F030F87E460F3E0FCCB6460126334274
:1000F00000D0FB1AA246AB4633431847B048000075
:10010000D0480000103A02D378C878C1FAD8520714
:1001100001D330C830C101D504680C6070470000BD
:100120000023002400250026103A01D378C1FBD813
:10013000520700D330C100D50B6070471FB51FBDFB
:1001400010B510BD00F093F91146FFF7F7FF03F06B
:1001500067FE00F0ABF903B4FFF7F2FF03BC00F059
:10016000B1F900000748804707480047FEE7FEE76F
:10017000FEE7FEE7FEE7FEE704480549054A064BB1
:1001800070470000B1290008C100000828060020BF
:10019000280C002028080020280800204343514351
:1001A00030B55C18010C130C0D4692B25D4380B261
:1001B00051432C19054655430A0C09044D19624157
:1001C0005843010C00044019514130BDFEB50546AD
:1001D00010460C46184373D0AE468C460020AD1A2C
:1001E00001469C4167D36646002701243D46B61A66
:1001F0009D4102D313463A462124654676462F0494
:10020000360C3E432D0CB61A9D4104D3150C1B042D
:100210002B4312041034654676462F06360A3E43B9
:100220002D0AB61A9D4104D3150E1B022B43120250
:100230000834654676462F0736093E432D09B61A1F
:100240009D4104D3150F1B012B431201241D65464C
:100250007646AF07B6083E43AD08B61A9D4104D3B3
:10026000950F9B002B439200A41C65467646EF0732
:1002700076083E436D08B61A9D411AD392185B4129
:10028000641C16E00018764665464941B71A9D4140
:100290000191009009D36046B11A98418E46844678
:1002A000009801990025401C6941DD0752082A4346
:1002B0005B08641EE6D57246634603B0F0BDFFE7F7
:1002C00000200146C046C0462A462346F5E701E025
:1002D00004C0091F0429FBD28B0701D50280801CB2
:1002E000C90700D00270704700290BD0C30702D0A5
:1002F0000270401C491E022904D3830702D50280E4
:10030000801C891EE3E70022EEE70022DFE70022DF
:1003100003098B422CD3030A8B4211D300239C4642
:100320004EE003460B433CD4002243088B4231D3BA
:1003300003098B421CD3030A8B4201D394463FE04E
:10034000C3098B4201D3CB01C01A524183098B42AE
:1003500001D38B01C01A524143098B4201D34B0197
:10036000C01A524103098B4201D30B01C01A5241FA
:10037000C3088B4201D3CB00C01A524183088B4281
:1003800001D38B00C01A524143088B4201D34B006A
:10039000C01A5241411A00D20146524110467047DC
:1003A0005DE0CA0F00D04942031000D340425340E1
:1003B00000229C4603098B422DD3030A8B4212D3A1
:1003C000FC22890112BA030A8B420CD389019211D3
:1003D0008B4208D3890192118B4204D389013AD010
:1003E000921100E08909C3098B4201D3CB01C01AE5
:1003F000524183098B4201D38B01C01A52414309F8
:100400008B4201D34B01C01A524103098B4201D3E5
:100410000B01C01A5241C3088B4201D3CB00C01A52
:10042000524183088B4201D38B00C01A5241D9D26A
:1004300043088B4201D34B00C01A5241411A00D2EB
:100440000146634652415B10104601D34042002BE7
:1004500000D54942704763465B1000D3404201B566
:100460000020C046C04602BD7047704770477546C1
:1004700000F024F8AE46050069465346C008C000A7
:10048000854618B020B5FFF777FE60BC0027490805
:10049000B6460026C0C5C0C5C0C5C0C5C0C5C0C51C
:1004A000C0C5C0C5403D49008D46704710B50446E3
:1004B000C046C0462046FFF74EFE10BD00487047BC
:1004C000C405002001491820ABBEFEE7260002004B
:1004D00070470000F8B5044600200090206801F045
:1004E00015FF002840D120688168204A102611405D
:1004F00000292BD18168D5432940491C81601C48C3
:10050000006807218905084000020AD51A481949E0
:100510000068FFF7FCFE401C00E0401E0090002831
:10052000FBD1607E01281FD000F09AFC074616E040
:1005300001F0ECFE002804D1206881682940491CA4
:10054000816000F08DFCC01B022808D9A06D3043EB
:10055000A065E06D01210843E0650846F8BD20680C
:100560000168C943C907E3D10020F8BD1700008026
:1005700008270140400D03003400002010B5FF2083
:10058000013000F09DFB0120400200F099FB0120AA
:10059000800200F095FB0120C00200F091FB03F007
:1005A0005BF803F093FF10BD72B6FEE7F8B50027C5
:1005B0000646044640360097307D0D4601280FD090
:1005C00001203075206801F0A5FE00280AD0A06D3A
:1005D00020210843A0650127002030753846F8BD6A
:1005E0000220F8BD686802287ED001222169D20766
:1005F000914202D0121D914206D120682968826A78
:100600004903490B0A436EE0C206D20E0F20216E49
:10061000904081432868430302D0C3074BD102E0D6
:100620004000C00E48E0830701D5012044E04307A5
:1006300001D5022040E0030701D503203CE0C306BA
:1006400001D5042038E0830601D5052034E04306B7
:1006500001D5062030E0030601D507202CE0C305B4
:1006600001D5082028E0830501D5092024E04305B1
:1006700001D50A2020E0030501D50B201CE0C304AE
:1006800001D50C2018E0830401D50D2014E04304AB
:1006900001D50E2010E0030401D50F200CE0C303A8
:1006A00001D5102008E0830301D5112004E04003A8
:1006B00001D5122000E000209040014321666968C6
:1006C000E2698808401C904210D820682B68826A32
:1006D0009C46C906C90E0F238B409A4363469B0074
:1006E0001B0F8B401A4300E03BE082622168AB683D
:1006F00028684A69000282431840400140090243C9
:100700004A612868002800DB66E72B4A1168072346
:100710009B051940294B984214D10B0212D4C002F8
:100720000143104601F002FE264825490068FFF704
:10073000EEFD0C214843401C00E0401E00900028C4
:10074000FBD149E7204B984203D1CB0101D4800271
:1007500005E01E4B9842D7D14802D5D45802014338
:1007600025E001212069C907884202D0091D88427D
:1007700006D120682968826A4903490B8A4382624C
:1007800028680028C0DA0C4A116807239B05194025
:100790000A4B984201D1C00208E00B4B984201D1AC
:1007A000800203E0094B9842AED1400281431046DB
:1007B00001F0BCFD10E7000008270140001000B068
:1007C000400D030034000020004000B8002000B4B9
:1007D0000068006C70470000FEB5002704463E46E6
:1007E00001970097002803D0A06D002802D008E0F0
:1007F0000120FEBD204600F015F90020E0655421DF
:10080000085520688168C900C90F11D181687C4AE8
:10081000114001221207114381607B487949006829
:10082000FFF775FD400000E0401E00900028FBD15E
:1008300020688168C900C90F08D1A16D1022114339
:10084000A165E16D01221143E165174601F062FDEA
:10085000A16DC90601D4002804D0A06D1021084361
:10086000A065CAE0A06DFF21013188430221084341
:10087000A065206801F04AFD01462046203000298D
:100880002FD12268D16818239943A3681943D160F6
:10089000626C216C636811439B0FA26C9B071A4327
:1008A0001143E26C11430E43017F012900D10E4335
:1008B00022681169554B1940314311610322616867
:1008C000920791420DD05A0791420AD052009142AC
:1008D00007D04F4DAB680F229204934311400B4356
:1008E000AB60217E8D03617EC9030D43A17E4A0367
:1008F0001543226B002A01D0012212031543E2683E
:1009000015432269002A02DA5200520801E001224E
:1009100052051543027B007852001543019A154396
:10092000012809D1002955D0A06D20210843A065D8
:10093000E06D01210843E065606A002806D0FF22CF
:10094000C1321040A16A28430D4605432168C8689A
:10095000304A10402843C860216808692E4A104078
:10096000304308610021626B206801F0E6FC2B49EE
:10097000A26B206801F0E1FC0F212069C943002827
:100980002CD001225205904216D1226E0020830005
:100990001646DE40F3431B0702D0401C0828F6D35E
:1009A00001281BD02068836A237F9B001B1FDB0666
:1009B000DB0E9940114381622068C06818490840E5
:1009C000A84210D10020E065A06D80088000401C86
:1009D000A06513E0012000040543ADE72068826AAA
:1009E0000A438262E8E7A06D022188431021084390
:1009F000A065E06D01210843E06501273846FEBD92
:100A0000E8FFFF7F400D03003400002002FCFF1FC1
:100A1000002701401902FEFF02FCFFDF04FFFF0771
:100A2000E7FF3F8330B587B0044614216846FFF7DF
:100A30006CFC18492068884229D1174802680121B6
:100A400009050A43026000680840059012484038D2
:100A5000416B012211434163416B11400591426B8F
:100A600002210A434263406B0324084005907D2025
:100A700000256A4631C205206946000700F036F9B4
:100A800006486A4631C26946054800F02FF907B0AA
:100A900030BD00000024014040100240041C000052
:100AA00000040050F8B5044640690D46082809D0F6
:100AB0002068C068C00707D0A06D20210843A0654A
:100AC0000120F8BD082600E0042600F0C9F9074619
:100AD00008E0681C06D000F0C3F9C01BA84214D877
:100AE000002D12D0206800683042F2D0A06D0121A4
:100AF00049020843A065206801F010FC0C2500287D
:100B00001CD0A07E002809D018E0A06D0421084365
:100B1000A0650020403420750320F8BD20680168DE
:100B200009070BD501F0F6FB012100280AD0A06DC2
:100B300020221043A065E06D0843E065207E002878
:100B40000BD00CE020684268AA434260A06DFF22EF
:100B5000013290430843A065F0E72068056000205B
:100B6000F8BD000070B50446006801F0D3FB002812
:100B700002D00221084670BD25464035287D012857
:100B80000AD0012028752046FFF7A4FC014600206A
:100B9000002903D02875EDE7022070BDA26D094B36
:100BA0001A40FF2301331A43A265E06523681C2223
:100BB0001A60287520688268034B1A40121D8260F3
:100BC000D8E70000FEF1FFFFE8FFFF7FF0B5002847
:100BD00008D0014620314A79022A05D00422C26396
:100BE000002008710120F0BD026813680E24A343A1
:100BF0001360426C1468FF2301339C431460026845
:100C000014686408640014600C4A5568066C1C245F
:100C1000264001242746B7403D435560826CC56C91
:100C20005560026D002A05D015689D431560826DE0
:100C3000406D42604C7100200871F0BD0000024020
:100C4000F8B50024024620325179022903D004214C
:100C5000C16301242DE001680B680E25AB430B60D6
:100C600001680B685B085B000B60416C0B68FF253B
:100C70000135AB430B6010494D68066C1C231E40C8
:100C800001231F46B7403D434D60816CC56C4D60EC
:100C9000016D002906D00E681D02AE430E60416D45
:100CA000856D4D60537100211171816B002900D059
:100CB00088472046F8BD0000000002407047000051
:100CC00070B5084D0446E868204203D0EC60204629
:100CD00000F00AF82869204203D02C612046FFF773
:100CE000EDFF70BD0018024070470000FCB5002306
:100CF00001259AE022462C469C4022406FD04E6847
:100D0000012E05D0022E03D0112E01D0122E16D1A5
:100D100086680327B4465E00B646B7406646BE43C3
:100D2000B446CF687646B740664637438760466824
:100D3000A6430C79E406E40F9C4034434460C66843
:100D40005F000324BC40A446A6438C68BC403443E7
:100D5000C4604C68022C01D0122C14D1DC08A40011
:100D600024180194266A5C07B646E60E0F24B440A8
:100D700000967646A643B6460C69009EB440764679
:100D80002643019C266204686646B4430E79B60782
:100D9000B60FBE40264306604C68E40044D59E086A
:100DA000254CB6003419A446246E9E07F60E0F2774
:100DB000B740BC4305273F07B84201D1002710E0E8
:100DC0001E4FB84201D101270BE01D4FB84201D19F
:100DD000022706E01B4FB84202D1032701E023E0BF
:100DE0000527B740274364462766134E803634688C
:100DF0004F689443FF0300D51443346074684F6810
:100E00009443BF0300D5144374600B4C26684F68AD
:100E10009643FF0200D51643266066684F689643E6
:100E2000BF0200D5164366605B1C0A681446DA40B0
:100E300000D05FE7FCBD0000001802400004005035
:100E400000080050000C00500069084000D001204C
:100E50007047002A01D081617047816270470000AD
:100E600001488068704700002800002070B5040029
:100E70000FD021681348086021681348086003CC2C
:100E800041602068083C21688860FFF7E9FF05465B
:100E900008E0012070BDFFF7E3FF401B302801D9B7
:100EA000032070BD2068C0680028F4D12068026962
:100EB000E1688A4201D0016101E00449016000203B
:100EC00070BD0000CCCC000055550000AAAA00005F
:100ED00002488168027889188160704728000020E4
:100EE00010B50848002401688215114301602046AE
:100EF00000F00AF8002801D0012401E000F028F8F1
:100F0000204610BD0020024070B50F4E00243178FD
:100F10000546002915D07D20C000FFF7F8F90146ED
:100F20000A480068FFF7F3F900F008FC002808D130
:100F3000042D06D200222946401E00F02BF87560D1
:100F400000E00124204670BD28000020340000206D
:100F500008B509480168012211430160006810408A
:100F6000009005484038C26B01040A43C263C06B5D
:100F70000840009008BD000040100240002805DB3A
:100F8000C106C90E01208840014908607047000071
:100F900000E100E010B502F03DFB10BDBFF34F8F44
:100FA00004490348C860BFF34F8F00BFFDE700004E
:100FB0000400FA0500ED00E010B50F4C2168032293
:100FC0005202914301432160C11FFF39FA390ED10A
:100FD0000A480621006848430949FFF798F9401C70
:100FE00002E0002805D0401E61694905F9D40020BF
:100FF00010BD032010BD0000007000403400002030
:1010000040420F00F8B50446006800264D4D8003AD
:1010100058D54C4800274038C06BC00009D4494817
:101020004038C26B01040A43C263C06B0840012709
:10103000009045480168821511430160FFF710FFD9
:10104000009005E0FFF70CFF0099401A022825D810
:101050003D480068C005F5D5E8690321090208404C
:101060000FD0616981420CD0E86903210902EA6965
:101070008843012109040A43EA61EA698A43EA6173
:10108000E861C0070FD0FFF7EBFE009008E0FFF724
:10109000E7FE0099411A2D48814201D9032609E053
:1010A000E8698007F3D5E86903210902884361698B
:1010B0000843E861002F05D022484038C26B010484
:1010C0008A43C2632078C00705D0686961688008D8
:1010D0008000084368612078800606D5686903218E
:1010E00009038843A168084368612088400411D53A
:1010F00068692169800080080843686101212069CE
:101100008907884206D10F484038C168012212047D
:101110001143C1602088000512D568690321890345
:101120008843E168084368610121E06889038842D7
:1011300006D104484038C168012212041143C1603D
:101140003046F8BD40100240007000408813000097
:10115000F8B50F46060043D04D4D28684007400FB4
:10116000B84213D22868C008C00038432860FFF78F
:1011700077FE044605E0FFF773FE011B45488142F8
:1011800061D828684007400FB842F4D13068424C1B
:1011900081070DD5400704D5A0680721090308433E
:1011A000A060A0680F2109028843B1680843A060CD
:1011B0003078C00732D0706801280AD002280BD0DE
:1011C00000280FD03449403103280ED0C96989075F
:1011D00004E02168890301E021688901002906DB18
:1011E0000120F8BD21684905F8E7096AEFE7A16821
:1011F000C908C9000143A160FFF732FE009006E074
:10120000FFF72EFE0099411A224881421BD8A068A0
:10121000382108407168C9008842F1D12868400728
:10122000400FB84217D91A480168C908C9003943A4
:101230000160FFF715FE054607E0FFF711FE411BB1
:101240001448814201D90320F8BD114800684007C5
:10125000400FB842F1D13078400706D5A068072189
:1012600009038843F1680843A06000F031F8A168E1
:101270003C2289091140094A515CC906C90EC8407F
:101280000749086007480068FFF73EFEF8BD000008
:101290000020024088130000001002404C49000862
:1012A000340000202C0000200648074900688968A7
:1012B000064A4904490F8900515CC906C90EC84055
:1012C0007047000034000020001002408C490008E4
:1012D00010B5204CA068204A8006400F16D0A068A8
:1012E0008006410F501001290FD0A1688906490FCF
:1012F000022912D0A0688006400F042823D0A068DD
:101300008006400F032821D0002010BD2068012155
:101310008004400F8140104612E0E1688B07E168CD
:101320009B0F4906490F491C032B00D01046FEF7BE
:10133000EEFFE1684904490E4843E168490F491C42
:10134000FEF7E5FF10BD0120C00310BD7D200002A7
:1013500010BD0000001002400024F400F8B50400A5
:101360007ED020783827C007EB4D002846D0A868EB
:10137000E96838408907890F102802D008280BD067
:1013800001E0032908D001206268000482420AD1EA
:1013900029680143296015E0286880032ED560681C
:1013A0000028DDD02AE0052301211B0489049A428C
:1013B0002A6802D10A432A60EAE782432A60286841
:1013C00088432860606800280CD0FFF749FD064676
:1013D00004E0FFF745FD801B642873D8286880036C
:1013E000F7D50BE0FFF73CFD064604E0FFF738FDBC
:1013F000801B6428F1D828688003F7D42078800700
:1014000069D5A868E96838408A070721920FC902A0
:10141000102802D0002813D001E0022A10D0E06882
:10142000002846D028688843216908432860286836
:10143000FF21013108432860FFF712FD06462CE02A
:101440002A68520502D5E268002A89D06A687F239B
:101450001B029A4363691B021A436A60002800E07A
:101460008DE00ED1286888432169084328602868E8
:1014700001218004400F8140A848FEF748FFA84999
:101480000860A8480068FFF73FFD002877D122E0F8
:10149000FFF7E6FC801B02289FD828684005F7D597
:1014A00068687F210902884361690902084368600E
:1014B00011E02968FF20013081432960FFF7D0FC4B
:1014C000064605E098E0FFF7CBFC801B022884D895
:1014D00028684005F7D42078934E00072ED5A868D9
:1014E0008006400F03280AD0A0690028306A16D071
:1014F000012108433062FFF7B3FC07460BE0306A76
:1015000080071BD5A06900289FD017E0FFF7A8FC33
:10151000C01B022870D8306A8007F7D50EE040085B
:1015200040003062FFF79CFC074604E0FFF798FCA0
:10153000C01B022860D8306A8007F7D420784007A3
:101540006CD5A86800278006400F042818D0E86BE7
:10155000C00008D4E96B012000070143E963E96B8F
:1015600001400127009171480168C90519D401683B
:10157000821511430160FFF773FC00900DE083E0DA
:10158000F06980074AD5A06800287DD046E0FFF7C3
:1015900067FC0099401A02282ED864480068C005EC
:1015A000F5D5A168012910D004200529F16911D0D1
:1015B00049084900F161F1698143F161A06800289F
:1015C00016D0FFF74DFC00900EE0F06901210843B2
:1015D000F061F3E70143F161F7E7FFF741FC0099A0
:1015E000411A534881426DD8F0698007F5D50EE065
:1015F000FFF736FC009007E064E0FFF731FC00994C
:10160000411A4B4881425DD8F0698007F5D4002F1C
:1016100004D0E96B012000078143E963E0690028F9
:1016200077D0A9688906490F022951D001263606CC
:10163000022828680DD0B0432860E8688008800040
:10164000E860E8683B490840E860FFF709FC0446A9
:101650003AE0B0432860FFF703FC074604E0FFF7D9
:10166000FFFBC01B02282DD828688001F7D4616ACF
:10167000206AA26A0843E16A120211430843216BFF
:101680000843E9682C4A00E041E011400843E86063
:10169000286830432860E868012109070843E860AA
:1016A000FFF7DEFB044604E0FFF7DAFB001B02282D
:1016B00008D828688001F7D52BE0FFF7D1FB001B85
:1016C000022801D90320F8BD28688001F5D420E064
:1016D0000128F8D0E868226A8107890F914216D163
:1016E0007021626A0140914211D17F21A26A0902F0
:1016F0000140120291420AD11F214904E26A0140CD
:10170000914204D1400F216B4007884201D0012053
:10171000F8BD0020F8BD0000001002400024F400D5
:10172000340000202C0000204010024000700040D7
:1017300088130000FFFFFEEF8C80C11F094910B520
:10174000401E884201D9012010BD074C6061032171
:10175000081F01F05FFF0020A0610720206100202A
:1017600010BD0000FFFFFF0000E000E07047704781
:1017700070470000F0B5034620331A7F012A24D0B9
:1017800001221A7702225A7704686268A568104F0E
:10179000BC4205D116460F22120596434A683243D1
:1017A0007026B2430E68164366600068B84202D0E5
:1017B000084A904204D18022896895432943816078
:1017C0000120587700201877F0BD0220F0BD0000FE
:1017D000002C01400004004070B5040005D02546EF
:1017E0002035687F002802D006E0012070BD00206F
:1017F0002877204600F016F802206877211D20681F
:1018000001F006F9012240342272AA77EA772270A9
:101810006270A270E27022716271A271E2716A77E5
:10182000002070BD08B501682248814208D12248D5
:10183000C26B02210A43C263C06B0840009008BD1E
:101840001D481E4A403091420DD10268C9130A4317
:101850000260006800220840009011461320FFF744
:1018600099FB132010E0164A914210D10268012121
:1018700049040A43026000680022084000901146B3
:101880001520FFF787FB1520FFF778FB08BD0D4AF1
:101890009142FBD10268012189040A430260006879
:1018A00000220840009011461620FFF773FB162017
:1018B000EAE7000000040040001002400020004061
:1018C000004401400048014070B5054604462035FB
:1018D000287F012817D001262E77022068772268FA
:1018E00090682E4B1840FF231B02984390600A68B3
:1018F000502A32D00EDC202A4CD006DC002A49D0F7
:10190000102A3BD146E0022070BD302A42D0402A46
:1019100034D137E0602A28D0702A12D00120000389
:10192000121A2BD0824229D1CB684A688968206874
:1019300001F0B7F8206881680122920311438160A9
:101940001CE0CB684A688968206801F0AAF8216821
:10195000886877221043886010E0CA684968206868
:1019600001F004FA5021206806E0CA68496820683E
:1019700001F00DFA6021206801F09EF86E770020DA
:10198000287770BDCA684968206801F0EFF94021E6
:101990002068F1E711462068EEE7000088FFCEFFDF
:1019A0007047000070B50446006801690025C9430E
:1019B0008907002915DBC168C943890711D4E91ECD
:1019C000016101202077206880698007204602D0CD
:1019D000FFF7E6FF04E000F0F5F8204600F0A9F973
:1019E000257720680169C943490717D4C168C943ED
:1019F000490713D40421C9430161022020772068DC
:101A000080698005800F204602D0FFF7C9FF04E0FF
:101A100000F0D8F8204600F08CF92577206801699D
:101A2000C943090716D4C168C943090712D408215C
:101A3000C9430161042020772068C06980072046DF
:101A400002D0FFF7ADFF04E000F0BCF8204600F044
:101A500070F9257720680169C943C90617D4C168A0
:101A6000C943C90613D41021C94301610820207756
:101A70002068C0698005800F204602D0FFF790FFE4
:101A800004E000F09FF8204600F053F92577206825
:101A90000169C943C90708D1C168C943C90704D14D
:101AA000891E0161204600F0F1F920680169C943EF
:101AB000090609D4C168C943090605D48021C94370
:101AC00001612046FFF753FE20680169C943C9053B
:101AD00008D4C168C943090604D4124901612046EB
:101AE000FFF744FE20680169C943490609D4C1686B
:101AF000C943490605D44021C9430161204600F08D
:101B0000C6F920680169C943890609D4C168C94377
:101B1000890605D42021C94301612046FFF728FE2C
:101B200070BD0000FFFEFFFF70B586B004461421B3
:101B30006846FEF7EAFB1D4A216800251C4802247E
:101B4000012691421DD1416B21434163416B2140EC
:101B50000591426B04210A434263406B08400590A3
:101B60000320694631C16946124804960395FFF780
:101B7000BDF8C020694631C169460F4804960395F7
:101B800010E00E4A91420FD1426B20210A4342637A
:101B9000406B0096084005900295019469460395B4
:101BA00004940748FFF7A2F806B070BD0004004097
:101BB00000100240000400500008005000200040C7
:101BC000001400507047F8B5064604462036307FB2
:101BD0000D4601280CD00120082730770C2A44D06C
:101BE00008DC002A0BD0042A19D0082A77D12CE06F
:101BF0000220F8BD102A4ED0142A70D15BE0206874
:101C000000F064FF2068816939438161206881693F
:101C1000042291438161206881692A6912E0206869
:101C200000F092FF206881690122D2021143816194
:101C300020688269012189028A4382612068816962
:101C40002A6912021143816149E0206800F0BAFF5D
:101C50002068C1693943C1612068C1690422914388
:101C6000C1612068C1692A6912E0206800F0E8FFBC
:101C70002068C1690122D2021143C1612068C26992
:101C8000012189028A43C2612068C1692A6912025E
:101C90001143C16123E0206801F008F82068416D1C
:101CA000394341652068426D04218A4342652068BA
:101CB000416D2A6911E0206801F026F82068416D25
:101CC0000122D202114341652068416D52109143B7
:101CD00041652068416D2A69120211434165002067
:101CE0003077F8BD70B5040005D025462035687FF3
:101CF000002802D006E0012070BD00202877204691
:101D000000F016F802206877211D206800F080FEA0
:101D1000012240342272AA77EA7722706270A270A0
:101D2000E27022716271A271E2716A77002070BD67
:101D30007047704730B505460223203000290ED089
:101D4000042911D02C464034082912D00C2915D072
:101D5000102918D0E278012A1AD0012030BD827FE4
:101D6000012AFAD1837714E0C27F012AF5D1C37723
:101D70000FE02278012AF0D123700AE06278012A6C
:101D8000EBD1637005E0A278012AE6D1A37000E0F0
:101D9000E3700122286800F077FE114A286890421B
:101DA00005D01049884202D00F49884204D1416CC5
:101DB0000123DB031943416428680121904202D0CA
:101DC0000A4A904207D18268094B1A40062A05D078
:101DD000DB1F9A4202D002680A430260002030BD35
:101DE000002C014000440140004801400004004034
:101DF0000700010070B504460D460068002200F09F
:101E000043FE1F491D4B20688A10984205D01D4B88
:101E1000984202D01C4B98420AD1036A0B4207D168
:101E2000036A134204D1436C0126F603B3434364AF
:101E30002068036A0B4206D1016A114203D101688E
:101E4000490849000160214620310120002D0BD0B6
:101E5000042D0BD04034082D0AD00C2D0AD0102DA3
:101E60000AD0E070002070BD8877FBE7C877F9E7FB
:101E70002070F7E76070F5E7A070F3E7002C0140F1
:101E800011110000004401400048014070477047B4
:101E900010B5014680310A78012A15D001220A7056
:101EA00024224A600268136814686408640014609D
:101EB00001225207934300224266006803602020FB
:101EC00048600A70104610BD022010BD7047704770
:101ED00070B5044605468034207801281AD00120C8
:101EE000207024206060286806680268520852004A
:101EF00002602868826807235B069A430A4382606F
:101F0000284600F057FF2868066020206060002007
:101F1000207070BD022070BD70B504460546803447
:101F20002078012819D001202070242060602868C2
:101F30000668026852085200026028688268D2006F
:101F4000D2080A438260284600F034FF2868066001
:101F5000202060600020207070BD022070BD70479E
:101F600070477047F8B503680446D96918689A68DD
:101F7000914D0E462E4025468035002E6CD08F4E5A
:101F80008F4F1640074037437FD0CF0706D0C70595
:101F900004D501271F62EB683B43EB608B0708D534
:101FA000D30706D0276802233B62EB6804273B4334
:101FB000EB604B0708D5D30706D0276804233B62A4
:101FC000EB6802273B43EB600B0709D52023034056
:101FD000334305D0266808233362EE681E43EE6063
:101FE0000B0509D5430107D501232668DB023362BF
:101FF000EB6820263343EB60EB68002B3AD0890670
:102000000AD520210840C9050A40104304D0216F99
:10201000002901D020468847E86821688968490678
:1020200002D4282108422AD0204600F095FF2068DB
:10203000816849061FD5826840218A438260E06F2B
:10204000002818D05F498163E06FFEF7F9FD002892
:1020500010D0E06F816B0CE08E0616D5012720268C
:102060003F07064017403E430FD0216F7FE00CE052
:1020700020468847F8BD2046FFF773FFF8BD20468D
:10208000FFF76FFF0020E860F8BDE66E012E59D122
:10209000CE0657D5C60655D510221A62206881682B
:1020A00026464906403600292BDAE36F196849684D
:1020B0000904090CE8D0B78B8F42E5D9F183196880
:1020C0000968890618D401681301994301602068E2
:1020D00081684908490081602068816840239943EC
:1020E00081602020A8600020E0662068016891439C
:1020F0000160E06FFEF76AFDB08BF18B401A81B290
:102100001CE0B18BF38BC91AF38B89B2002BBBD0C7
:102110000029B9D00368FF262136B3430360206845
:102120008368264EF643334083602020A860002059
:10213000E066206720680368934303602046FFF74A
:10214000C5FEF8BDCE0208D5560206D50120000511
:1021500018622046FFF704FFF8BD0E060BD50127D5
:102160008026FF0506403A40164304D0616F0029DF
:1021700000D07DE7F8BD4A060DD542060BD51A689A
:10218000204640218A431A6020216960002161674E
:1021900000F0BAF8F8BD0A0205D5420003D5204682
:1021A000FFF7DDFEF8BDC901FCD50028FADA2046AC
:1021B000FFF78DFEF8BD00000F08000001000010C1
:1021C00020010004452F000870B5040005D0254605
:1021D00080356868002802D006E0012070BD00202C
:1021E0002870204600F026F82420686020680168E6
:1021F000490849000160204601F082F80128EDD02D
:10220000A06A002802D0204600F004FE2068416841
:102210000922D20291434160206881682A229143B9
:10222000816020680168012211430160204600F0AE
:1022300057FE70BD10B586B0044614216846FEF7FF
:1022400064F81149206888421CD1104802680121B5
:1022500089030A4302600068084005900B48403833
:10226000426B02210A434263406B01910840059092
:10227000C02000900020029003900490694604481A
:10228000FEF734FD06B010BD00380140401002409A
:102290000004005030B5034680339C68202C19D1CF
:1022A00000290BD0002A09D0012584682D03AC42F7
:1022B00006D10469002C03D1CC0701D0012030BD28
:1022C0001C78012C06D001241C700023C36601F089
:1022D000CDF830BD022030BD10B5006806498842F7
:1022E00009D106480178064800F0CAFA01220349DC
:1022F0000448FFF7CFFF10BD003801401C0000204C
:10230000DC010020580400207047FEE78068C00709
:10231000C00F704780684007C00F7047C068000555
:10232000800F01D00020704701207047026807230A
:102330009B059A430A430260704710B54369042421
:10234000214007248C40A3438A401343436110BDBE
:102350003EB50021444800910191424A0291026039
:102360005205816042600261C160042242610176CF
:1023700041768176012402462032C46111704162A7
:10238000816211730323436301631177C164FEF714
:1023900023FA002801D0FEF707F900946946324875
:1023A0000194FEF703F9002801D0FEF7FDF82F484D
:1023B000009069462C48FEF7F9F8002801D0FEF796
:1023C000F3F82B48009069462748FEF7EFF80028FD
:1023D00001D0FEF7E9F82748009069462248FEF749
:1023E000E5F8002801D0FEF7DFF8234800906946A1
:1023F0001D48FEF7DBF8002801D0FEF7D5F81F488E
:10240000009069461848FEF7D1F8002801D0FEF781
:10241000CBF81B48009069461348FEF7C7F8002820
:1024200001D0FEF7C1F81748009069460E48FEF744
:10243000BDF8002801D0FEF7B7F8134800906946B0
:102440000948FEF7B3F8002801D0FEF7ADF80F48B1
:10245000009069460448FEF7A9F8002801D0FEF76D
:10246000A3F83EBD00240140B4020020040000088F
:102470000800000C1000001020000014400000189C
:10248000000400280008002C0080003C00000140EF
:10249000F0B587B014216846FDF737FF4148416B1E
:1024A000042631434163416B31400591426B202149
:1024B0000A434263426B0A400592416B012529435E
:1024C0004163416B29400591426B02210A434263FB
:1024D000426B0A400592426B08210A434263406BFB
:1024E0000324084064030590012221462E48FEF78C
:1024F000B0FC2E4F012239462D48FEF7AAFC0520DC
:10250000002229030007FEF7A4FC01220421294828
:10251000FEF79FFC0094002401950294694622482E
:102520000394FEF7E3FB0294694621480097019566
:102530000394FEF7DBFB0F20000200901E48019081
:102540000520694602950007FEF7D0FBE8036A46BE
:1025500031C2052069460007FEF7C8FB280300903A
:10256000052002946946019503940007FEF7BEFB1F
:102570000B206A4631C269460E48FEF7B7FB02944B
:1025800069460C48009601950394FEF7AFFB0022C4
:1025900011460720FEF7FEFC0720FEF7EFFC07B010
:1025A000F0BD00000010024000080050386000003C
:1025B00000040050000C00500000311010B5084815
:1025C00006490160022141600649C1608160FEF751
:1025D0004DFC002801D0FDF7E7FF10BD00300040A2
:1025E00018030020FF0F000010B588B01C216846BA
:1025F000FDF78BFE14491548002412C00460846066
:102600001349046141600838FFF7E6F8002801D05B
:10261000FDF7CAFF0D48FFF765FB002801D0FDF765
:10262000C3FF602000900194029400226946049444
:102630000648FFF7C8FA002801D0FDF7B5FF0348A8
:10264000FFF772FA08B010BD0020004074030020AC
:102650005F09000010B50A48084901600021416087
:1026600081600161074A4161C2608161FFF7B4F88E
:10267000002801D0FDF798FF10BD00000044014084
:10268000C00300205F09000010B50A480849016036
:10269000002141608160016101224161C26081616C
:1026A000FFF79AF8002801D0FDF77EFF10BD00006B
:1026B000004801400C04002030B58FB0002407947E
:1026C000089409940A940B940C941C2168460D9468
:1026D000FDF71BFE2E492F4812C0046084602E496E
:1026E000046141600838FFF777F8002801D0FDF752
:1026F0005BFF01200003079007A92648FFF7E4F8D5
:10270000002801D0FDF750FF2248FFF7EBFA002820
:1027100001D0FDF749FF0B940BA91E480D94FFF75C
:1027200029F8002801D0FDF73FFF602501940294AD
:1027300000226946174800950494FFF744FA0028E0
:1027400001D0FDF731FF0422694612480095FFF7DA
:102750003AFA002801D0FDF727FF082269460D4804
:1027600000950194FFF72FFA002801D0FDF71CFF18
:102770000C22694607480095FFF725FA002801D08A
:10278000FDF712FF0348FFF7CFF90FB030BD00008F
:1027900000040040280300205F09000010B51F4816
:1027A0001D4901604B210902416000218160C16027
:1027B00001618161C16101620C22416242618162F9
:1027C000FFF702FD002801D0FDF7EEFE00211348BF
:1027D000FFF7A2FB002801D0FDF7E6FE00210F481D
:1027E000FFF776FB002801D0FDF7DEFE0B48FFF770
:1027F0004FFB002801D0FDF7D7FE002211461B2019
:10280000FEF7C8FB1B20FEF7B9FB01220449034871
:10281000FFF740FD10BD00000038014058040020C3
:102820001C000020FEE7704730B5027B002A1AD05A
:102830000E4A1468256820239D432560047B641E8E
:102840000473126814681C4314604268531C43608C
:1028500012780A70427B016843688A189A4200D84D
:102860004160002030BD0020C04330BD580400202E
:102870008160416001600021017342737047000074
:1028800030B5027B437B9A4217D20C4A13681D680D
:102890002024A5431D60037B5B1C037383685D1CC0
:1028A00085601970437B01688568CB18AB4200D8FE
:1028B0008160106801682143016030BD5804002028
:1028C00070470000F8B500250F4C104E0DE0206851
:1028D000C82800DB2560684600780D280CD00A283F
:1028E0000AD021687054491C216069460848FFF7E6
:1028F0009BFF0028EBD0F8BD20680A213154401C12
:1029000035542560F8BD000024000020FC040020A0
:10291000DC01002010B5FEF7DBFA10BD30B597B032
:1029200034216846FDF7F1FC00240D940E940F94B9
:10293000182111A81094FDF7E8FC01204002FEF7D1
:102940003BFB0A200090FF200130039040200590BF
:1029500001200225069009200A9028040B90079573
:10296000400304940C90089509946846FEF7F6FC21
:10297000002801D072B6FEE707200D900F940121C8
:102980000E9510940DA8FEF7E3FB002801D072B657
:10299000FEE7064811901294159411A8FEF732FB39
:1029A000002801D072B6FEE717B030BD014000002C
:1029B00001200249C00688607047000000ED00E079
:1029C00010B50248FEF7EEFF10BD000074030020B2
:1029D00010B50448FEF7E6FF03480168491C016092
:1029E00010BD0000C00300201800002010B50648EC
:1029F000FEF7D8FF054900230A684868521C584171
:102A00000A60486010BD00000C0400201000002087
:102A100070B50268174B184E984201D0B04203D1EE
:102A20007024A2434C682243144C154D984208D0A0
:102A3000B04206D0134EB04203D0A04201D0A8420B
:102A400004D103263602B243CE6832438026B24315
:102A50004E69324302608A68C2620A6882629842A2
:102A600003D0A04201D0A84201D10969016301212C
:102A7000416170BD002C0140000400400044014051
:102A8000004801400020004010B5CB06DB0E0121BC
:102A9000046A99408C430462016A9A4011430162BE
:102AA00010BD30B58468FF252D021B021343AC43D3
:102AB0000B432343836030BD8268034B1A400A43B3
:102AC00007210A43826070478FFFCFFFF0B5026A8B
:102AD000520852000262056A43688269164C184E19
:102AE000224092080C6892001443022295438A689F
:102AF0002A43124DA84204D0B04202D0114FB8422E
:102B000006D10827BA43CF681743042297433A46B1
:102B1000A84204D0B04202D00A4DA84206D10325F3
:102B20002D02AB434D691D438B692B434360846188
:102B3000496841630262F0BD8FFFFEFF002C014037
:102B4000004401400048014070B5026A10239A43D6
:102B50000262046A43688269164D2A4003252D02E9
:102B6000AA430D682D021543202294438A6812015E
:102B70002243114CA04208D11446CA688026B443AF
:102B8000120122434024A24305E00C4CA04202D093
:102B90000B4CA04208D10324A402A3434C69A40017
:102BA0001C438B699B0023434360856149688163B3
:102BB000026270BDFF8FFFFE002C01400044014007
:102BC0000048014070B5026AFF2301339A43026254
:102BD000046A4368C269164D2A4092080D68920043
:102BE00015430122520294438A6812022243114C77
:102BF000A04208D11446CA68C614B4431202224344
:102C00000415A24305E00C4CA04202D00B4CA0429C
:102C100008D103242403A3434C6924011C438B697A
:102C20001B0123434360C5614968C163026270BDF3
:102C30008FFFFEFF002C014000440140004801408E
:102C400030B5026A01231B039A430262046A456895
:102C5000C269124B1A4003231B029A430B681B02E2
:102C600013430122520394438A68120322430C4CFB
:102C7000A04205D00B4CA04202D00B4CA04206D182
:102C80002C460125AD03AC434D69AD01254345609C
:102C9000C36149680164026230BD0000FF8FFFFE1E
:102CA000002C0140004401400048014070B5026A18
:102CB00001263604B2430262036A4268446D0E4D37
:102CC0002C400D6825437400A3430C8924041C4345
:102CD0000A4B984205D00A4B984202D0094B9842C1
:102CE00003D14B69B2431B021A43426045654968F0
:102CF0008165046270BD00008FFFFEFF002C014063
:102D0000004401400048014070B5026A01231B05E0
:102D10009A430262036A4268456D104C25400C6874
:102D200024022C4301256D05AB430D892D051D4360
:102D30000B4B984205D00B4B984202D00A4B98425D
:102D400006D101261346B6044A69B34392021A43D8
:102D5000426044654968C165056270BDFF8FFFFE32
:102D6000002C0140004401400048014030B5036A96
:102D7000046A6408640004628469F025AC431201AB
:102D800022430A24A3430B438261036230BD30B562
:102D9000036A1024A34303628469036A0F252D0389
:102DA0001203AC432243A024A343090119438261C7
:102DB000016230BDF0B513A106C985B00192009142
:102DC00012A206CA039202910446416E40340029C1
:102DD00015D000688168806809014D0F400F02AE70
:102DE000315C6F46385CC000FDF791FA6085785D14
:102DF000715DC000FDF78BFA208505B0F0BD0120A4
:102E00006085F9E7010101030701000008040204DD
:102E10000801010110B5018DC90707D001684A6892
:102E200001235B049A43C36A1A434A60018D8907F0
:102E300007D501684A6801231B049A43036B1A43B0
:102E40004A60018D490707D501684A6801239B0440
:102E50009A43436B1A434A60018D090707D50168FD
:102E60004A680123DB039A43836B1A434A60018D4E
:102E7000C90607D50268916801231B039943C36BF8
:102E800019439160018D890607D501688A6801237D
:102E90005B039A43036C1A438A60018D490612D57D
:102EA00003685A6801210905446C8A4322435A6029
:102EB000426C8A4207D10268516803235B0599433B
:102EC000836C19435160018D090607D501684A6872
:102ED0000123DB04C06C9A4302434A6010BD00002A
:102EE000FEB50546002680350446EE60FDF7B8FFC6
:102EF000019020680068124F000709D50121009752
:102F0000002249052046019B00F020FB00280DD13E
:102F10002068006840070BD5012100970022890531
:102F20002046019B00F012FB002801D00320FEBDCB
:102F300020206860A860E6662E700020FEBD0000BC
:102F4000FFFFFF0110B5806A002201464031CA83AD
:102F5000CA82FFF706F810BD01680A68FF23213313
:102F60009A430A6001688A68084B1A408A60C16EF9
:102F7000012904D101680A6810239A430A602022BB
:102F800088210A500021C16601677047FEFFFFEFEC
:102F900070B50446403021468031038C8D6822682C
:102FA000222D04D0906908210843906170BD526AB7
:102FB000A56D1A402A80A26D921CA265C28B521E7A
:102FC000C283C28B002AF1D122681368FF25213504
:102FD000AB431360226893685B085B009360202218
:102FE0008A6000252567E16E012904D02046FFF79D
:102FF00073F9E56670BD21680A6810239A430A6078
:10300000818B2046FEF762FFF3E70000F0B505462E
:103010000446403589B0288C02902068C669016852
:1030200006918168049121468031009189682229A6
:1030300005D0816908221143816109B0F0BD2F8D4F
:103040005CE02068406A029AA16D10400880A06D83
:10305000801CA065E88B401EE8832068C669710764
:1030600031D0F10709D00699C90506D501210162C1
:103070000098C06808430099C860B0070BD5049851
:10308000C00708D02168022008620098C0680421A7
:1030900008430099C86070070BD50498C00708D092
:1030A0002168042008620098C06802210843009942
:1030B000C8600098C068002805D02046FEF751FF80
:1030C00000990020C860E88B002817D120680168AB
:1030D000FF2201329143016020688168184A114043
:1030E000816000992020886000202067E06E012820
:1030F0001CD02046FFF7F0F80020E066002F01D03A
:10310000B0069ED4E88B002897D0298D814294D9AF
:103110002068816801221207914381600948206775
:103120002068016820221143016086E72068016859
:10313000102291430160A98B2046FEF7C7FEDBE712
:10314000FEFFFFEF912F000870B504464030224685
:103150008032038C95682168222D04D0886908226A
:103160001043886170BD496A1940A36D1970A16D43
:10317000491CA165C18B491EC183C18B0029F1D1B6
:1031800021680B68FF252135AB430B6021688B68F4
:103190005B085B008B602021916000252567E16E54
:1031A000012904D02046FFF797F8E56670BD216835
:1031B0000A6810239A430A60818B2046FEF786FE38
:1031C000F3E70000F0B505460446403589B0288C89
:1031D00001902068C66901680691816804912146C2
:1031E000803102918968222905D081690822114322
:1031F000816109B0F0BD2F8D5CE02068406A0199C3
:103200000840A16D0870A06D401CA065E88B401EB1
:10321000E8832068C669710731D0F10709D00699A3
:10322000C90506D5012101620298C06808430299C8
:10323000C860B0070BD50498C00708D021680220E9
:1032400008620298C068042108430299C8607007A8
:103250000BD50498C00708D02168042008620298A2
:10326000C068022108430299C8600298C06800281B
:1032700005D02046FEF775FE02980021C160E88B5C
:10328000002817D120680168FF22013291430160B4
:1032900020688168184A1140816002992020886066
:1032A00000202067E06E01281CD02046FFF714F8AC
:1032B0000020E066002F01D0B0069ED4E88B0028E5
:1032C00097D0298D814294D9206881680122120704
:1032D00091438160094820672068016820221143DA
:1032E000016086E720680168102291430160A98B84
:1032F0002046FEF7EBFDDBE7FEFFFFEF493100085C
:10330000F8B5044680682169E269084361690025CF
:1033100011430843616E2268014310684B4B18400B
:103320000843106021684868032212039043E26852
:1033300010434860A169206A226808439168444BA1
:103340001940014391602068C16A626A0909090154
:103350001143C1623F492068884211D13E4840690B
:103360008007800F0FD0012806D0022802D0032842
:103370000BD103E0022109E0042107E0082105E068
:103380003649884201D1002100E010210120E36983
:10339000C003334A334E344F834228D1002906D02C
:1033A000022907D0042907D0082941D108E0FDF7F8
:1033B0007BFF03E0104603E0FDF78AFF00283BD0C7
:1033C000616A4900715AFCF7A2FF616840004A082F
:1033D0008018FCF79CFF80B201461039B94227D80B
:1033E0002149491C01400007400F084322E0002901
:1033F00006D0022907D0042907D0082918D108E0EF
:10340000FDF752FF03E0104603E0FDF761FF0028DF
:1034100012D0616A4900715AFCF779FF61684A0865
:103420008018FCF774FF80B201461039B94201D907
:10343000012501E02168C860204601214030418516
:1034400001850020206760672846F8BDF369FFCF3B
:10345000FFF4FF11003801404010024000440040DA
:103460000024F40034490008EFFF0000F0B5816546
:10347000014640318A83CA8300230367012584689B
:103480002D03FF26AC4204D10469002C13D12A4C31
:103490000AE07F27002C09D001263607B4420CD160
:1034A0000469002C05D03F240C8407E00469002C3B
:1034B00001D00F8402E00E8400E00B8404468034C7
:1034C000E3602226A6600768BE68BC4601273E432B
:1034D0006746BE600127466E7F07BE4219D1098D3F
:1034E000914216D88168A94202D1016900290ED003
:1034F00012490167237001680A68FF2301331A43E8
:103500000A60006881681A051143816010E00C4967
:10351000EFE78168A94202D1016900290AD009496F
:103520000167237000680168FF22213211430160A6
:103530000020F0BD0449F3E7FF010000C531000899
:103540000D30000849310008912F0008FFB581B007
:1035500005460F46044680350A9E38E0701C36D07A
:10356000FDF77EFC0499401AB04221D8002E1FD0EE
:103570002068016849072AD5C069C043000526D4E0
:1035800001202168C002086220680168FF22A13280
:1035900091430160206881684908490081602020CA
:1035A0006860A860E86000202870032005B0F0BDC6
:1035B00020680168FF22A132914301602068816880
:1035C00049084900816020206860A860EBE7206816
:1035D000C1693846884305D0002103988142BDD097
:1035E0000020E3E70121F8E710B50248FEF7BAFC36
:1035F00010BD00005804002030B47446641E2578C5
:10360000641CAB4200D21D46635D5B00E31830BC16
:10361000184700008307FF22DB0E9A408907090E36
:103620009940002808DB830809489B001B1818688C
:1036300090430843186070470007000F083883085C
:1036400004489B001B18D86990430843D861704711
:1036500000E400E000ED00E0F8B5052401212407B6
:103660004902204600F020FC384EFF21B0700131A5
:10367000204600F019FCF070B47832790025344906
:10368000944212D0334A136852680B634A63347110
:103690003778002F20D0012F24D0022F2FD0357063
:1036A00000220A614A618A61CA617279904212D02D
:1036B000284A136852688B66CA6670717478002C49
:1036C00027D0012C2BD0022C36D0757000208864B6
:1036D000C86408654865F8BD002CE6D00B624A62F4
:1036E00001220AE0002CE0D18B62CA620C6A4F6AA8
:1036F0001B1BBA410B614A6102223270D5E7002CD4
:10370000D3D08C6ACF6A1B1BBA418B61CA613570FA
:10371000CBE70028DFD08B650120CA650AE00028CE
:10372000D9D10B664A66886DCC6D181AA241CA645D
:10373000886402207070F8BD0028FCD0086E4C6EC2
:10374000181AA2414A6508657570F8BD1D00002071
:10375000D00000201000002010B5002000F010F86C
:10376000002000F0BDF8002000F036F9012000F044
:1037700007F8012000F0B4F8012000F02DF910BD89
:10378000F8B5014601263548354D0022002907D0FD
:1037900001290DD1334C0101237C012B30D005E0F0
:1037A000304C303C217C012903D0202100F076FBF5
:1037B000F8BD617C022901D0202124E0277F002F61
:1037C0000CD0284E264B303E71691B685B1AB169DC
:1037D0004908012F08D0022F10D10DE0202100F060
:1037E00057FB286860612BE08B42E1D9202100F073
:1037F00055FB286860612DE08B42D9D92277F8BD4E
:10380000637C022B02D000F043FBF8BD277F002F22
:1038100010D0144B124E303B5B6C3668F61A114BCD
:10382000303B9B6C5B08012F0CD0022FE6D19E42EF
:10383000E4D8F8BD00F02CFB0A4928683039486408
:103840002677F8BD9E42FCD900F028FB0549286880
:103850003039486402202077F8BD00000004005091
:1038600018000020A000002070B51821184A41431C
:10387000555C3021174A41430E4600230324891822
:10388000002D03D0052D01D093554C703026704388
:10389000114A104E1278801901252030042A06D0D2
:1038A000022A07D0012A0BD0052A09D00AE00570A8
:1038B000447070BD0570022242700848886270BD75
:1038C0000D744C74002AFAD10B74037070BD0000A3
:1038D000700100207000002000000020204E000039
:1038E000F8B5014601273948394E0022002907D092
:1038F00001290FD1374C49032378012B37D007E03A
:10390000344C503C254620352978012903D010211C
:1039100000F0C4FAF8BD6978022901D0102129E02D
:103920002B7B002B0ED02B49294F5039496A3F6819
:103930007F1A28495039896A4908012B09D0022B7E
:1039400013D110E0102100F0A3FA306860622F73E9
:10395000F8BD8F42FCD9102100F0A0FA30686062F7
:1039600002202873F8BD8F42FCD92A73F8BD637812
:10397000022B02D000F08CFAF8BD257B002D0ED072
:10398000144B134F503B5B6D3F68FF1A114B503B7C
:103990009B6D5B08012D0AD0022D15D112E000F0BD
:1039A00077FA0C493068503948652773F8BD9F4253
:1039B000FCD900F073FA0749306850394865022095
:1039C0002073F8BD9F42FCD92273F8BD000400505B
:1039D00018000020C0000020F8B50146012630483C
:1039E000304D0022304C002907D001290CD1302164
:1039F000635CB103012B2CD004E02378012149033F
:103A0000012B02D000F04AFAF8BD6378022B1DD1D9
:103A1000277B002F0AD0244B224E5B683668F61AAB
:103A2000214B9B685B08012F25D104E000F030FAA0
:103A30002868606027E09E42E6D900F02FFA2868E7
:103A4000606029E09E42DFD92273F8BD00F020FAC1
:103A5000F8BD154C30346378022BF7D1277B002F4B
:103A60000CD0114B0F4E5B6B3668F61A0E4B9B6BEE
:103A70005B08012F09D0022FE6D1E3E700F008FA36
:103A80000949286848632673F8BD9E42FCD900F0B6
:103A900005FA05492868486302202073F8BD000034
:103AA00000080050180000207000002030B50020F1
:103AB000FFF7DAFE0120FFF7D7FE0F4B1878012839
:103AC00018D10E48012404700321024641702032AF
:103AD000147451740A490B4C0D68002D01D12568EE
:103AE0000D602468611B084CA14203D900210170BC
:103AF0001174197030BD0000040000207000002017
:103B00000800002018000020204E000010B5002002
:103B100000F004F8012000F001F810BDF1B584B008
:103B2000049F18204743534864213C182089A688E5
:103B300005467043FCF7F5FB0004000CE0804E499D
:103B4000E16001D10120E0804A48C25D4B4813008A
:103B50000068FFF751FD090613132B3C7B79137F97
:103B600079002269821A8A4242D96389E2889342A3
:103B700001D99A1A29E00020608139E02269821A6D
:103B80008A4235D9E38862895E19964201D2D21AF7
:103B90001BE0EE1A964201DDD21816E0EB189342B4
:103BA00026D9964224DA6581206121E02269821AB1
:103BB0008A421DD900220FE05A1B06E05A1904E080
:103BC000B518AB4214D2BB4212DD6281ECE7226928
:103BD000821A8A420CD90122A270274AE588638999
:103BE000513AAF18BB42E7D8971BBB42E8DAE5E78A
:103BF00062692069019008200292009120180178E2
:103C00000B46417809020B438178C07809040B43C5
:103C1000217900060A466179034309020A43A17922
:103C2000E07909040A43000602432046247821462D
:103C30004478240221438478C07824042143000678
:103C40000143049800F026FE05B0F0BD049800F092
:103C50005BFE0CE0049800F057FE084962690968B1
:103C600004488A1A04498A42EED96178C155002075
:103C70006081E9E770010020D007000018000020F3
:103C8000F8B51248124DC06A2968081A14281BD3C7
:103C9000002000F097FB012600270E4C002801D0E1
:103CA000267303E02773207E401C2076012000F05D
:103CB00089FB002801D0667303E06773207E401CF7
:103CC000207602482968C162F8BD0000400100204A
:103CD00018000020C0010020F8B53348334F806A37
:103CE0003968081A7D21C90088425BD300F05EFA6A
:103CF000012500262E4C002801D0657203E0667273
:103D0000207E401C207600F0A9FB002801D02572FF
:103D100003E02672207E401C2076002000F06EFA20
:103D2000002801D0A57303E0A673207E401C2076F6
:103D3000002000F0FBFA002801D0A57203E0A67273
:103D4000207E401C2076002000F0A4FA002801D03C
:103D5000257403E02674207E401C2076012000F0AC
:103D60004DFA002801D0E57303E0E673207E401C85
:103D70002076012000F0DAFA002801D0E57203E095
:103D8000E672207E401C2076012000F083FA002895
:103D900001D0657403E06674207E401C20760248E2
:103DA00039688162F8BD0000400100201800002041
:103DB000C001002010B5FFF763FFFFF78DFF10BDB6
:103DC00010B5C82202490348FEF752FD10BD00009D
:103DD000EC010020DC01002070B5052501212D0734
:103DE0004902284600F060F80B4CFF212071013198
:103DF000284600F059F8607101218902284600F038
:103E000053F8064908720121C902284600F04CF80F
:103E100002494031087070BD1D000020D000002014
:103E2000FDF75EF8FEF77AFDFEF732FBFEF790FA3B
:103E3000FEF742FCFEF7B2FCFEF7D6FBFEF70AFCEB
:103E4000FEF7BCFBFEF720FCFFF7C6FFFFF7B8FF4D
:103E50000C4801210170002141600B4D0B4C417059
:103E60002560FEF72FFD00F025F8FFF7A3FF00F017
:103E700089F800F0D5F8FFF719FEFFF76DFCFFF7A2
:103E800045FEEDE704000020AAAA00000030004033
:103E900010B589B20122FCF7DCFF10BD10B589B264
:103EA0000022FCF7D6FF10BD10B589B2FCF7CCFF9D
:103EB00010BD000070B5002000F03AF9012000F0BC
:103EC00037F92D48002204782C49042C12D0037EA7
:103ED000042B0FD04D78032D17D1052C15D0052BB1
:103EE00013D0032C03D0032B01D04376447003235B
:103EF000037003760478032C18D0037E032B15D0AF
:103F00001E4D6D7F032D04D016E043780370437E71
:103F1000EFE7052C10D0052B0ED0042B03D0042C7A
:103F200001D0437644700423037003764878032855
:103F300006D0012804D008E043780370437EF4E7FC
:103F4000487F032806D0012804D00C480A76203088
:103F5000027570BD0A484A6900687D23821A1B01F8
:103F60009A42F6D94861087E401CC0B208760528FE
:103F7000EFD9FDF713F870BD700100203800002064
:103F80001800002070B5234A234814469668156A25
:103F900020340521214BB54209D9257C012D06D1BC
:103FA000A57A012D03D102251D7001700176D66816
:103FB000556AB54209D9657C012D06D1E57A012DF6
:103FC00003D103251D7001700176012615683603A3
:103FD000B54202D9257A012D03D01D78012D05D0D7
:103FE00008E001251D700170017603E000250570D1
:103FF00005761D705268B24206D9627A012A03D151
:1040000004221A7001700176207E0A2800D91970E6
:10401000187870BDA0010020700100200000002071
:1040200010B5002000F004F8012000F001F810BDE8
:10403000F1B5009F18203A4D4743E85D03286DD045
:1040400004286BD0052869D0082867D0354C207823
:10405000002802D0012804D006E0009800F08CFA75
:1040600002E0009800F048FB009800F063FA009925
:10407000182359432A4B2C4ACE180099382320780C
:1040800059438C18002802D001280CD021E0607818
:10409000A178884202D1E95D00291AD1E17800298E
:1040A00017D001210AE06078A178884202D1E95D49
:1040B00000290ED1E17800290BD00721E955F070D5
:1040C0001A49A07048436421FCF721F93081E07956
:1040D000B0706079A179884202D1E95D002910D1E0
:1040E000E17800290DD000280BD00221E955F070AD
:1040F0000E49A07148436421FCF709F93081E07949
:10410000B070E85D022803D0012801D0072805D14E
:10411000E078002802D1009800F0AEFBF8BD000066
:104120007001002005000020D00000205F09000081
:10413000F8B5044600F0B8F902461C20184944437B
:104140000D5D0E4601231748A619954203D0056858
:10415000756033740A55357C002D12D0776802687B
:10416000D71BC82F02D96D1C35747260EDB2052DB6
:1041700007D900253574095D00290ED00221717020
:10418000F260B1680068401A0749884204D9707823
:10419000012801D103207070F8BD7370B260F0E7A0
:1041A0003800002018000020102700000EB5002065
:1041B00002900F4800900120019069460D48FCF7DD
:1041C000F5F9002801D0FCF7EFF90A48FCF7CAFC22
:1041D0007D21C9000748FCF765FC002801D00020BC
:1041E0000EBD0448FCF7F4FA0349486001200EBDF7
:1041F00004000008B4020020400100203EB5002168
:104200007D250122ED001F4C0091019102910028B3
:1042100002D0012819D02CE01B4800906946019279
:104220001A48FCF7C3F9002801D0FCF7BDF917487C
:10423000FCF798FC29461548FCF734FC002818D1F7
:104240001248FCF7C5FAA06119E0114800906946D0
:1042500001920E48FCF7AAF9002801D0FCF7A4F956
:104260000A48FCF77FFC29460848FCF71BFC00289D
:1042700001D000203EBD0548FCF7AAFAE06101200C
:104280003EBD00004001002000040028B4020020D0
:104290000008002C3EB500217D250122ED001F4CB9
:1042A000009101910291002802D0012819D02CE040
:1042B0001B480090694601921A48FCF777F90028DC
:1042C00001D0FCF771F91748FCF74CFC294615485A
:1042D000FCF7E8FB002818D11248FCF779FA2062B5
:1042E00019E011480090694601920E48FCF75EF90A
:1042F000002801D0FCF758F90A48FCF733FC29469E
:104300000848FCF7CFFB002801D000203EBD05483F
:10431000FCF75EFA606201203EBD00004001002013
:104320000080003CB4020020000001403EB50021A6
:104330007D250122ED001F4C009101910291002882
:1043400002D0012819D02CE01B4800906946019248
:104350001A48FCF72BF9002801D0FCF725F917487B
:10436000FCF700FC29461548FCF79CFB002818D1F7
:104370001248FCF72DFAA06019E011480090694638
:1043800001920E48FCF712F9002801D0FCF70CF955
:104390000A48FCF7E7FB29460848FCF783FB00289E
:1043A00001D000203EBD0548FCF712FAE060012074
:1043B0003EBD0000400100200800000CB4020020B7
:1043C000100000103EB500217D250122ED001F4C9C
:1043D000009101910291002802D0012819D02CE00F
:1043E0001B480090694601921A48FCF7DFF8002844
:1043F00001D0FCF7D9F81748FCF7B4FB294615485B
:10440000FCF750FB002818D11248FCF7E1F92061B5
:1044100019E011480090694601920E48FCF7C6F871
:10442000002801D0FCF7C0F80A48FCF79BFB29469E
:104430000848FCF737FB002801D000203EBD0548A6
:10444000FCF7C6F9606101203EBD0000400100207C
:1044500020000014B4020020400000180EB5002017
:10446000029001200090019069460D48FCF79EF8EB
:10447000002801D0FCF798F80948FCF773FB7D2170
:10448000C9000748FCF70EFB002801D000200EBD34
:104490000348FCF79DF90349086001200EBD0000A8
:1044A000B402002040010020014610B50020002980
:1044B00007D0012904D10520C9030007FFF7F4FC48
:1044C00010BD01210048F9E7000C005070B505252A
:1044D00001212D0789022846FFF7E6FC134C012134
:1044E000E071C9022846FFF7DFFC21462031C8777A
:1044F000E279237A08250E499A4208D022720B7875
:10450000022B01D0012B02D14B700D708A70074A2B
:1045100040321378984208D010700A7E022A01D0E7
:10452000012A02D14A700D76887670BDD000002035
:104530007001002010B5052212070D4C00280DD087
:1045400001280AD1C1021046FFF7AEFC0949C87123
:10455000606A64225043000B487110BD012189023A
:104560001046FFF7A1FC03493839C871206AF0E70B
:104570004001002008010020F8B50526594A5A4F8D
:1045800036070025002821D0012870D108211046C7
:10459000FFF78AFC554C0121E070C9023046FFF755
:1045A00083FCE071216B3B68626B78685B1A904119
:1045B0004F4A0021D21A81415CD2FF21013130469D
:1045C000FFF772FC002853D064206AE002211046F5
:1045D000FFF76AFC454C0121383CE0708902304607
:1045E000FFF762FCE071216B3B68626B78685B1AD5
:1045F00090413F4A0021D21A81410BD20121490248
:104600003046FFF751FC002802D06420607015E0AE
:10461000657013E02069616902460A430ED0A26901
:10462000E369174626461F4308D082184B41FBF723
:10463000CDFD64220023FBF7B1FD70702269606933
:10464000114601434CD0A169E3690E461E4347D091
:1046500051185841264B00225B1A824140D2F02368
:104660000022C91A90413BD26570082136E037E03C
:10467000657017E01D493839886CC96C02460A43D9
:1046800010D01A4B383B1A6D5E6D1346334309D078
:104690000B4682187341FBF799FD64220023FBF758
:1046A0007DFD607011483838816CC06C0A46024349
:1046B00016D00E4B383B1A6D5B6D16461E430FD05D
:1046C000891858410A4B00225B1A824108D2F02314
:1046D0000022C91A904103D2657009210548017072
:1046E000F8BD0000000C0050100000200801002060
:1046F000C05D000000000020F8B5594A594C012760
:104700000025002814D0012811D108211046FFF7F8
:10471000CBFB554EF070316B2368726B6068591A91
:104720009041524B0022591A824142D27570F8BD15
:1047300002211046FFF7B8FB4B4E383EF070316B4C
:104740002368726B6068591A9041484B0022591ACD
:104750008241EBD33069746901462143E7D0F269A5
:10476000B1691143E3D0424A0021121AA14106D295
:104770007D22120121460023821A994132D33C4AFC
:1047800021460023821A994105D27D22D2000021C0
:10479000121AA14144D3364A21460023821A994174
:1047A00004D2334A0021101AA141BFD375700621EB
:1047B00053E02D493839886CCC6C01462143B6D082
:1047C000294A383A116D526D1143B0D0284A002160
:1047D000121AA14118D27D22120121460023821A09
:1047E000994111D2224B21465B42DA12C018514145
:1047F000FF22F5320023FBF7E9FC64220023FBF7DC
:10480000CDFC7070F571F8BD194A21460023821A5B
:10481000994115D27D22D2000021121AA1410FD256
:10482000134A0021101AA141FF22F5320023FBF7A1
:10483000CDFC64220023FBF7B1FC7070F771F8BD6A
:104840000B4A21460023821A994104D2084A0021CA
:10485000101AA141A9D37570072106480170F8BD4F
:10486000000C00501000002008010020001BB700C1
:10487000DC050000000000201821054B4843195CAE
:10488000C218517000211954D17011819170704774
:10489000700100200FB470B56946CC8B194D897D2D
:1048A000002813D001280DD1002923D0012909D1D6
:1048B0000C212846FDF73EFA2868046408211148B7
:1048C000FDF798FA70BC08BC04B01847002909D05D
:1048D0000129F7D104210B48FDF72CFA28688463DD
:1048E0000021ECE700210748FDF724FA286844631B
:1048F0000421E4E708210348FDF71CFA2868C46393
:104900000C21DCE72803002010B500280AD001287C
:1049100007D108210648FDF76DFA0C210448FDF780
:1049200069FA10BD04210248FDF764FA0021F5E799
:1049300028030020010002000400060008000A000D
:104940000C0010002000400080000001000000006A
:104950000000000000000000000000000000000057
:104960000000000000000000000000000100000046
:104970000200000003000000040000000600000028
:10498000070000000800000009000000000000000F
:104990000000000000000000000000000100000016
:1049A000020000000300000004000000CC490008E1
:1049B000000000203800000004010008044A00083C
:1049C00038000020F00B000020010008000000006B
:1049D00000000000000000000000000000000000D7
:1049E00000000000000000000000000000000000C7
:1049F00000000000010000000400000000000000B2
:044A00000024F4009A
:04000005080000C12E
:00000001FF
